:100000000C9434000C9451000C9451000C94510049
:100010000C9451000C9451000C9451000C9451001C
:100020000C9451000C9451000C9451000C9451000C
:100030000C9451000C9451000C9451000C945100FC
:100040000C9451000C9451000C9495000C945100A8
:100050000C9451000C9451000C9451000C945100DC
:100060000C9451000C94510011241FBECFEFD8E026
:10007000DEBFCDBF11E0A0E0B1E0E6EAF1E002C0F2
:1000800005900D92AE30B107D9F721E0AEE0B1E0B6
:1000900001C01D92A035B207E1F70E94B8000C9490
:1000A000D1000C94000087E690E09093C500809307
:1000B000C4008091C10088698093C1008091C20012
:1000C00086608093C20008959091C00095FFFCCF98
:1000D0008093C6000895CF93DF93EC01888181114E
:1000E00003C0DF91CF91089521960E946400F6CF5E
:1000F00020910F0190910E0181E0291301C080E051
:10010000089590910F0180910E019817D1F3E0911D
:100110000E01F0E0E05FFE4F808120910E012F5F25
:100120003F4F2F7320930E0108952F932FB72F93D6
:100130003F938F939F93EF93FF932091C6008091FD
:100140000F0101968F7330910E01381741F0E09145
:100150000F01F0E0E05FFE4F208380930F01FF91DD
:10016000EF919F918F913F912F912FBF2F911895D4
:100170000E945300789480E091E00E946B008FEF22
:1001800093ED20E3815090402040E1F700C0000053
:100190000E947800803099F30E9481000E946400E0
:0601A000EECFF894FFCF42
:0E01A600554152542072656164790D0A0000C3
:00000001FF
