:100000000C9434000C9451000C9451000C94510049
:100010000C9451000C9451000C9451000C9451001C
:100020000C9451000C9451000C9451000C948A02D1
:100030000C9451000C9451000C9451000C945100FC
:100040000C9451000C9451000C9440020C946302E7
:100050000C9451000C9451000C9451000C945100DC
:100060000C9451000C94510011241FBECFEFD8E026
:10007000DEBFCDBF11E0A0E0B1E0ECEDF5E002C0E5
:1000800005900D92A03CB107D9F722E0A0ECB1E0B9
:1000900001C01D92A936B207E1F70E94AD020C948F
:1000A000EC020C94000087E690E09093C5008093EA
:1000B000C4008091C10088698093C1008091C20012
:1000C00086608093C2000895259A089580918100EA
:1000D00088608093810089EF90E0909389008093FD
:1000E000880080916F00826080936F008091810012
:1000F0008360809381000895309128022091270227
:10010000321789F0E0912702F0E0E75DFD4F208192
:10011000FC0120838091270201968F739927809399
:10012000270281E0089580E090E008952091E601A3
:100130002F5F3F4F2F73922F4091E5014917E1F355
:10014000E091E601F0E0E951FE4F80832093E60163
:100150008091C10080628093C1000895CF93DF93A6
:10016000EC018881811103C0DF91CF910895219620
:100170000E949600F6CFEF92FF921F93CF93DF93EA
:10018000CDB7DEB72A970FB6F894DEBF0FBECDBF4E
:10019000DC01CB01109790408040E9F480E3898333
:1001A00011E07E018FEFE81AF80A22C0BC01CD01F0
:1001B0002AE030E040E050E00E94C302F701E10F86
:1001C000F11D605D6083C901DA011F5F10979040E7
:1001D000804061F7E6CF10E07E012FEFE21AF20ACD
:1001E000F5CF1150F701E10FF11D80810E949600BB
:1001F0001111F7CF2A960FB6F894DEBF0FBECDBF10
:10020000DF91CF911F91FF90EF90089580E091E0F2
:100210000E94AE0083E191E00E94AE0085E291E091
:100220000C94AE0088E291E00E94AE0084E391E07D
:100230000E94AE008BE391E00E94AE0084E491E066
:100240000E94AE008EE491E00C94AE00813019F073
:1002500085E591E00CC0FB01A081B181EBE6F1E006
:100260000E94E502892B29F42D9A8EE691E00C94E8
:10027000AE00FB01A081B181E7E7F1E00E94E50259
:10028000892B21F42D988BE791E0F1CF85E891E05F
:100290000E94AE00DDCFEF92FF920F931F938FB7B6
:1002A000F8942091E1013091E2014091E3015091F5
:1002B000E40179018A018FBF87E991E00E94AE00D5
:1002C000B701C8010E94BB0081EA91E01F910F9124
:1002D000FF90EF900C94AE000C944B01EF92FF92C4
:1002E0001F93CF93DF93FC017B0180E090E04150AE
:1002F00050402081203019F08417950774F09C013C
:10030000220F331F260F371FF90110821182DF9150
:10031000CF911F91FF90EF9008952081DF013196DA
:100320002032D9F3203059F30196F701A193B1930C
:100330007F01FD01ED011991103221F0DE01111153
:10034000F8CFD7CF1C92FE01D4CFCF93DF93CDB798
:10035000DEB760970FB6F894DEBF0FBECDBF19822F
:100360001A8248E050E0BE016F5F7F4F0E946E012D
:10037000482F803019F129813A81D901E6EAF1E06C
:100380000E94E502892B51F460960FB6F894DEBF07
:100390000FBECDBFDF91CF910C941201D901EBEAD2
:1003A000F1E00E94E502892B91F429833A83CE0182
:1003B0000396BC01842F81500E94260160960FB6DF
:1003C000F894DEBF0FBECDBFDF91CF910895D90164
:1003D000EFEAF1E00E94E502892B51F460960FB636
:1003E000F894DEBF0FBECDBFDF91CF910C944B01CF
:1003F000D901E4EBF1E00E94E502892B79F385E86D
:1004000091E060960FB6F894DEBF0FBECDBFDF91CE
:10041000CF910C94AE00883011F08F3759F4809151
:10042000C001803061F181508093C0018BEB91E07D
:100430000C94AE008D3099F4E091C001F0E0EF53E0
:10044000FE4F108280E191E00E94AE0081EC91E0CD
:100450000E94A5011092C00185E291E0E9CF8A30A7
:1004600071F09091C0019F3150F4E92FF0E0EF530B
:10047000FE4F80839F5F9093C0010C949600089577
:100480002F932FB72F933F938F939F93EF93FF93C8
:100490002091C6008091280201968F733091270227
:1004A000381741F0E0912802F0E0E75DFD4F20832E
:1004B00080932802FF91EF919F918F913F912F910F
:1004C0002FBF2F9118958F938FB78F939F93EF9393
:1004D000FF939091E6018091E50198130CC0809103
:1004E000C1008F7D8093C100FF91EF919F918F910B
:1004F0008FBF8F911895E091E501F0E0E951FE4F33
:1005000080818093C6008091E50101968F7380936E
:10051000E501EACF1F921FB61F9211248F939F937C
:10052000AF93BF938091E1019091E201A091E3012B
:10053000B091E4010196A11DB11D8093E10190935A
:10054000E201A093E301B093E401BF91AF919F91C9
:100550008F911F901FBE1F9018950F92CDB7DEB7D9
:100560000E9453000E9464000E94660078940E94DA
:100570000601CE0101960E947C00892BD1F389816E
:100580000E940B02F6CFA1E21A2EAA1BBB1BFD0193
:100590000DC0AA1FBB1FEE1FFF1FA217B307E40762
:1005A000F50720F0A21BB30BE40BF50B661F771FBA
:1005B000881F991F1A9469F760957095809590959A
:1005C0009B01AC01BD01CF0108958D91019080196F
:0C05D0000110D9F3990B0895F894FFCFA7
:1005DC005368656C6C20696E6974696E672E2E2E7B
:1005EC000D0A00476F6F736548656170205368652D
:1005FC006C6C0D0A003E2000636F6D6D616E647350
:10060C003A0D0A0068656C700D0A006C6564206F09
:10061C006E0D0A006C6564206F66660D0A007469C5
:10062C00636B0D0A0075736167653A206C65642015
:10063C003C6F6E7C6F66663E0D0A006F6E004C451B
:10064C0044204F4E0D0A006F6666004C4544204F07
:10065C0046460D0A00756E6B6E6F776E20636F6D7C
:10066C006D616E640D0A00757074696D65203D20B6
:10067C00006D730D0A0068656C70006C6564007425
:10068C0069636B00757074696D6500082008000063
:00000001FF
