:100000000C9434000C9451000C9451000C94510049
:100010000C9451000C9451000C9451000C9451001C
:100020000C9451000C9451000C9451000C94DB0181
:100030000C9451000C9451000C9451000C945100FC
:100040000C9451000C9451000C9491010C94B40147
:100050000C9451000C9451000C9451000C945100DC
:100060000C9451000C94510011241FBECFEFD8E026
:10007000DEBFCDBF11E0A0E0B1E0EEE7F4E002C0EA
:1000800005900D92AC37B107D9F722E0ACE7B1E0AB
:1000900001C01D92A532B207E1F70E94FE010C9447
:1000A0003D020C94000087E690E09093C500809399
:1000B000C4008091C10088698093C1008091C20012
:1000C00086608093C2000895259A089580918100EA
:1000D00088608093810089EF90E0909389008093FD
:1000E000880080916F00826080936F008091810012
:1000F00083608093810008953091E4012091E301B1
:10010000321789F0E091E301F0E0EB51FE4F2081DE
:10011000FC0120838091E30101968F7399278093DE
:10012000E30181E0089580E090E008952091A2012C
:100130002F5F3F4F2F73922F4091A1014917E1F399
:10014000E091A201F0E0ED55FE4F80832093A201E3
:100150008091C10080628093C1000895CF93DF93A6
:10016000EC018881811103C0DF91CF910895219620
:100170000E949600F6CFEF92FF921F93CF93DF93EA
:10018000CDB7DEB72A970FB6F894DEBF0FBECDBF4E
:10019000DC01CB01109790408040E9F480E3898333
:1001A00011E07E018FEFE81AF80A22C0BC01CD01F0
:1001B0002AE030E040E050E00E941402F701E10F35
:1001C000F11D605D6083C901DA011F5F10979040E7
:1001D000804061F7E6CF10E07E012FEFE21AF20ACD
:1001E000F5CF1150F701E10FF11D80810E949600BB
:1001F0001111F7CF2A960FB6F894DEBF0FBECDBF10
:10020000DF91CF911F91FF90EF90089580E091E0F2
:100210000E94AE0083E191E00C94AE00EF92FF9259
:100220000F931F939C01DC01ECE1F1E00E94360288
:10023000892BC1F481E291E00E94AE008DE291E051
:100240000E94AE0084E391E00E94AE008DE391E055
:100250000E94AE0087E491E01F910F91FF90EF9014
:100260000C94AE00D901EEE4F1E00E943602892B35
:1002700021F42D9A85E591E0EFCFD901EEE5F1E08B
:100280000E943602892B21F42D9886E691E0E4CF76
:10029000D901E0E7F1E00E943602892BC1F48FB763
:1002A000F89420919D0130919E0140919F015091C1
:1002B000A00179018A018FBF85E791E00E94AE001D
:1002C000B701C8010E94BB0089E191E0C5CF1F9131
:1002D0000F91FF90EF900895CF93C82F0E94960042
:1002E000E0917C01CD3011F0CA3081F4F0E0E358A8
:1002F000FE4F108289E191E00E94AE008DE791E00F
:100300000E940E0110927C01CF910895EF31E0F729
:10031000AE2FB0E0A358BE4FCC93EF5FE0937C01CB
:10032000F3CF2F932FB72F933F938F939F93EF93F9
:10033000FF932091C6008091E40101968F73309164
:10034000E301381741F0E091E401F0E0EB51FE4F9A
:1003500020838093E401FF91EF919F918F913F91D2
:100360002F912FBF2F9118958F938FB78F939F93B6
:10037000EF93FF939091A2018091A10198130CC07B
:100380008091C1008F7D8093C100FF91EF919F917B
:100390008F918FBF8F911895E091A101F0E0ED55FD
:1003A000FE4F80818093C6008091A10101968F73DA
:1003B0008093A101EACF1F921FB61F9211248F9341
:1003C0009F93AF93BF9380919D0190919E01A091C7
:1003D0009F01B091A0010196A11DB11D80939D01C7
:1003E00090939E01A0939F01B093A001BF91AF9104
:1003F0009F918F911F901FBE1F9018950F92CDB7A0
:10040000DEB70E9453000E9464000E946600789448
:100410000E940601CE0101960E947C00892BD1F337
:1004200089810E946C01F6CFA1E21A2EAA1BBB1B88
:10043000FD010DC0AA1FBB1FEE1FFF1FA217B307B0
:10044000E407F50720F0A21BB30BE40BF50B661FC6
:10045000771F881F991F1A9469F76095709580958A
:1004600090959B01AC01BD01CF0108958D91019044
:0E04700080190110D9F3990B0895F894FFCF6D
:10047E005368656C6C20696E6974696E672E2E2EDA
:10048E000D0A005368656C6C210D0A0068656C706E
:10049E0000636F6D6D616E64733A0D0A0068656C72
:1004AE00700D0A006C6564206F6E0D0A006C656439
:1004BE00206F66660D0A007469636B0D0A006C6529
:1004CE0064206F6E004C4544204F4E0D0A006C6543
:1004DE0064206F6666004C4544204F46460D0A0068
:0C04EE007469636B007469636B203D004F
:00000001FF
