:100000000C9434000C9451000C9451000C94510049
:100010000C9451000C9451000C9451000C9451001C
:100020000C9451000C9451000C9451000C9451000C
:100030000C9451000C9451000C9451000C945100FC
:100040000C9451000C9451000C9451000C948900B4
:100050000C9451000C9451000C9451000C945100DC
:100060000C9451000C94510011241FBECFEFD8E026
:10007000DEBFCDBF11E0A0E0B1E0E4E7F1E002C0F7
:1000800005900D92A831B107D9F721E0A8E1B1E0C0
:1000900001C01D92AA35B207E1F70E94B0000C948E
:1000A000B8000C94000087E690E09093C500809320
:1000B000C4008091C10088608093C1008091C2001B
:1000C00086608093C2000895209119012F5F3F4FF1
:1000D0002F73922F409118014917E1F3E091190114
:1000E000F0E0E65EFE4F8083209319018091C1000D
:1000F00080628093C1000895CF93DF93EC018881E3
:10010000811103C0DF91CF91089521960E94640070
:10011000F6CF8F938FB78F939F93EF93FF93909129
:1001200019018091180198130CC08091C1008F7D36
:100130008093C100FF91EF919F918F918FBF8F911D
:100140001895E0911801F0E0E65EFE4F8081809303
:10015000C6008091180101968F7380931801EACF31
:100160000E945300789480E091E00E947C00FFCFD1
:04017000F894FFCF31
:1001740048656C6C6F20696E74657272707574205A
:0801840055415254210D0A00FF
:00000001FF
